:100000000C9472000C949A000C949A000C949A0030
:100010000C949A000C949A000C949A000C949A00F8
:100020000C949A000C949A000C949A000C949A00E8
:100030000C949A000C949A000C949A000C949A00D8
:100040000C949A000C949A000C949A000C949A00C8
:100050000C949A000C949A000C949A000C949A00B8
:100060000C949A000C949A000C949A000C949A00A8
:100070000C949A000C949A000C949A000C949A0098
:100080000C949A000C949A000C949A000C949A0088
:100090000C949A000C949A000C949A000C949A0078
:1000A0000C949A000C949A000C949A000C949A0068
:1000B0000C949A000C949A000C949A000C949A0058
:1000C0000C949A000C949A000C949A000C949A0048
:1000D0000C949A000C949A000C949A000C949A0038
:1000E0000C949A0011241FBECFEFD1E2DEBFCDBF2A
:1000F00000E00CBF0E9480000C948F00F894FFCFAA
:10010000209A91E085B1892785B92FE936E881E009
:0E011000215030408040E1F700C00000F3CFE6
:10011E00EC010E949F000E949E00CE010E94A00052
:06012E00CE010E949C00BE
:040134000C94000027
:040138000E947E00A3
:02013C00089524
:02013E00089522
:02014000089520
:00000001FF
